S013000054726166666963204657442E7372656351
S11300000C942A000C94F5000C9447000C944700BF
S11300100C9447000C9447000C9447000C94470040
S11300200C9447000C9447000C9447000C94470030
S11300300C9447000C9447000C9447000C94470020
S11300400C9447000C9447000C9447000C94470010
S11300500C94470011241FBECFE5D8E0DEBFCDBF0E
S113006010E0A0E6B0E0EAE3F9E002C005900D92EA
S1130070A236B107D9F720E0A2E6B0E001C01D9294
S1130080AB36B207E1F70E9492020C949B040C94E5
S1130090000067E081E00E947F0261E080E00E944E
S11300A07F0260E080E00E947F0262E080E00E94C4
S11300B07B0262E081E00E947F0260E081E00E94B6
S11300C07B020E94D303C1E0C093600062E080E041
S11300D00E947F0261E080E00E947B020E9469042A
S11300E061E080E00E947F020E94690461E080E098
S11300F00E947B020E94690461E080E00E947F020A
S11301000E94690461E080E00E947B020E9469040D
S11301101092600061E080E00E947F0260E080E075
S11301200E947B0262E081E00E947B0260E081E049
S11301300E947F020E94D30360E080E00E947F025D
S1130140C093600061E080E00E947B020E94690429
S113015061E080E00E947F020E94690461E080E027
S11301600E947B020E94690461E080E00E947F0299
S11301700E94690461E080E00E947B020E9469049D
S113018082E08093600085CF41E060E080E00E94DF
S1130190970241E061E080E00E94970241E062E062
S11301A080E00E94970241E060E081E00E949702B3
S11301B041E061E081E00E94970241E062E081E079
S11301C00E94970241E067E081E00E94970262E0AA
S11301D083E00E9483020E94B1030E94C2030E9432
S11301E0A3030E94AD030E9449001F920F920FB611
S11301F00F9211242F933F934F935F936F937F93A9
S11302008F939F93AF93BF93EF93FF9362E080E04C
S11302100E947F0262E081E00E947F0260E080E051
S11302200E947F0260E081E00E947F0261E080E042
S11302300E947F0261E081E00E947F028091600061
S1130240882321F067E081E00E947B0280916200B4
S1130250811140C181E0809362008091600081112E
S11302603EC060E00E947B0262E081E00E947B026B
S1130270109260000E94050460E080E00E947F020A
S113028061E080E00E947B020E94370461E080E02C
S11302900E947F020E94370461E080E00E947B029A
S11302A00E94370461E080E00E947F020E943704CC
S11302B061E080E00E947B020E94370461E080E0FC
S11302C00E947F0262E080E00E947B0262E081E0A3
S11302D00E947F0260E081E00E947B02AAC081301C
S11302E009F050C060E00E947B0261E080E00E945F
S11302F07B0261E081E00E947B020E94370461E09E
S113030080E00E947F0261E081E00E947F020E94FF
S1130310370461E080E00E947B0261E081E00E949A
S11303207B020E94370461E080E00E947F0261E06A
S113033081E00E947F020E94370461E080E00E9415
S11303407B0261E081E00E947B020E94370461E04D
S113035080E00E947F0261E081E00E947F0260E011
S113036080E00E947B0262E081E00E947B0260E008
S113037081E00E947F0262E080E00E947F020E948E
S1130380050457C0823009F054C060E081E00E9447
S11303907B0262E080E00E947B0261E080E00E94D8
S11303A07B0261E081E00E947B020E94370461E0ED
S11303B080E00E947F0261E081E00E947F020E944F
S11303C0370461E080E00E947B0261E081E00E94EA
S11303D07B020E94370461E080E00E947F0261E0BA
S11303E081E00E947F020E94370461E080E00E9465
S11303F07B0261E081E00E947B020E94370461E09D
S113040080E00E947F0261E081E00E947F0260E060
S113041080E00E947B0262E081E00E947B0260E057
S113042081E00E947F0262E080E00E947F020E94DD
S1130430050480916000882309F44AC060E080E0EC
S11304400E947F0261E080E00E947B0261E081E023
S11304500E947B020E94370461E080E00E947F02D8
S113046061E081E00E947F020E94370461E080E045
S11304700E947B0261E081E00E947B020E943704BB
S113048061E080E00E947F0261E081E00E947F02DF
S11304900E94370461E080E00E947B0261E081E019
S11304A00E947B020E94370461E080E00E947F0288
S11304B061E081E00E947F0262E081E00E947F02AD
S11304C060E081E00E947B0262E080E00E947B02A7
S11304D010926200FF91EF91BF91AF919F918F9124
S11304E07F916F915F914F913F912F910F900FBE2C
S11304F00F901F90189541E00E941D03089540E05D
S11305000E941D030895CF93DF93C82FD62F40E098
S11305100E94970240E06D2F8C2F0E941D03DF91F3
S1130520CF9108950E94C40080E090E00895843043
S113053008F07BC0683008F07AC0423008F079C017
S1130540813011F130F08230D1F1833009F452C09E
S113055072C041110DC02AB381E090E002C0880F3F
S1130560991F6A95E2F7809582238ABB81E00895FA
S11305702AB381E090E002C0880F991F6A95E2F7E0
S1130580822B8ABB81E0089541110DC027B381E01D
S113059090E002C0880F991F6A95E2F78095822344
S11305A087BB81E0089527B381E090E002C0880F03
S11305B0991F6A95E2F7822B87BB81E00895411168
S11305C00DC024B381E090E002C0880F991F6A95A2
S11305D0E2F78095822384BB81E0089524B381E00F
S11305E090E002C0880F991F6A95E2F7822B84BBC2
S11305F081E0089541110DC021B381E090E002C073
S1130600880F991F6A95E2F78095822381BB81E068
S1130610089521B381E090E002C0880F991F6A9584
S1130620E2F7822B81BB81E0089580E0089580E0A9
S1130630089580E0089581E00895843008F07BC037
S1130640683008F07AC0423008F079C0813011F186
S113065030F08230D1F1833009F452C072C04111BC
S11306600DC02BB381E090E002C0880F991F6A95FA
S1130670E2F7809582238BBB81E008952BB381E060
S113068090E002C0880F991F6A95E2F7822B8BBB1A
S113069081E0089541110DC028B381E090E002C0CB
S11306A0880F991F6A95E2F78095822388BB81E0C1
S11306B0089528B381E090E002C0880F991F6A95DD
S11306C0E2F7822B88BB81E0089541110DC025B368
S11306D081E090E002C0880F991F6A95E2F7809547
S11306E0822385BB81E0089525B381E090E002C0B8
S11306F0880F991F6A95E2F7822B85BB81E00895E4
S113070041110DC022B381E090E002C0880F991F0F
S11307106A95E2F78095822382BB81E0089522B333
S113072081E090E002C0880F991F6A95E2F7822B5E
S113073082BB81E0089580E0089580E0089580E020
S1130740089581E0089585B7826085BF85B781608B
S113075085BF8BB780648BBF08958FB780688FBFC8
S1130760089583B78F7B83BF83B7877F83BF12BE10
S113077089B7816089BF83B7887F83BF83B785606A
S113078083BF089585B58F7B85BD85B5877F85BD7E
S113079015BC89B7806489BF85B5887F85BD85B55B
S11307A0876085BD08950E94B10319C008B600FE94
S11307B0FDCF88B7816088BF809167009091680001
S11307C0A0916900B0916A000196A11DB11D8093AA
S11307D0670090936800A0936900B0936A008091C9
S11307E0670090916800A0916900B0916A004397F6
S11307F0A105B105D8F2109267001092680010921A
S1130800690010926A0013BE08950E94C20319C0C1
S113081008B606FEFDCF88B7806488BF8091630068
S113082090916400A0916500B09166000196A11DAD
S1130830B11D8093630090936400A0936500B0930E
S113084066008091630090916400A0916500B0916E
S113085066004397A105B105D8F210926300109287
S11308606400109265001092660015BC08950E9401
S1130870C20319C008B606FEFDCF88B7806488BFDE
S11308808091630090916400A0916500B09166002E
S11308900196A11DB11D8093630090936400A09301
S11308A06500B09366008091630090916400A0910C
S11308B06500B09166000497A105B105D8F21092C5
S11308C0630010926400109265001092660015BCDB
S11308D008950E94B10319C008B600FEFDCF88B781
S11308E0816088BF8091670090916800A091690041
S11308F0B0916A000196A11DB11D80936700909389
S11309006800A0936900B0936A0080916700909199
S11309106800A0916900B0916A000497A105B1052F
S1130920D8F2109267001092680010926900109239
S10D09306A0013BE0895F894FFCF87
S105093A0200B5
S9030000FC
